{
  "contractName": "Oracle",
  "abi": [
    {
      "constant": false,
      "inputs": [],
      "name": "updateBTCCap",
      "outputs": [],
      "payable": false,
      "stateMutability": "nonpayable",
      "type": "function"
    },
    {
      "constant": true,
      "inputs": [],
      "name": "getBTCCap",
      "outputs": [
        {
          "name": "",
          "type": "uint256"
        }
      ],
      "payable": false,
      "stateMutability": "view",
      "type": "function"
    },
    {
      "constant": true,
      "inputs": [],
      "name": "btcMarketCap",
      "outputs": [
        {
          "name": "",
          "type": "uint256"
        }
      ],
      "payable": false,
      "stateMutability": "view",
      "type": "function"
    },
    {
      "constant": true,
      "inputs": [],
      "name": "owner",
      "outputs": [
        {
          "name": "",
          "type": "address"
        }
      ],
      "payable": false,
      "stateMutability": "view",
      "type": "function"
    },
    {
      "constant": false,
      "inputs": [
        {
          "name": "cap",
          "type": "uint256"
        }
      ],
      "name": "setBTCCap",
      "outputs": [],
      "payable": false,
      "stateMutability": "nonpayable",
      "type": "function"
    },
    {
      "inputs": [],
      "payable": false,
      "stateMutability": "nonpayable",
      "type": "constructor"
    },
    {
      "anonymous": false,
      "inputs": [],
      "name": "CallbackGetBTCCap",
      "type": "event"
    }
  ],
  "bytecode": "0x6060604052341561000f57600080fd5b336000806101000a81548173ffffffffffffffffffffffffffffffffffffffff021916908373ffffffffffffffffffffffffffffffffffffffff1602179055506102458061005e6000396000f30060606040526004361061006d576000357c0100000000000000000000000000000000000000000000000000000000900463ffffffff1680631701af271461007257806321e79a6914610087578063257db2d7146100b05780638da5cb5b146100d9578063f1ffa5bf1461012e575b600080fd5b341561007d57600080fd5b610085610151565b005b341561009257600080fd5b61009a61017f565b6040518082815260200191505060405180910390f35b34156100bb57600080fd5b6100c3610189565b6040518082815260200191505060405180910390f35b34156100e457600080fd5b6100ec61018f565b604051808273ffffffffffffffffffffffffffffffffffffffff1673ffffffffffffffffffffffffffffffffffffffff16815260200191505060405180910390f35b341561013957600080fd5b61014f60048080359060200190919050506101b4565b005b7fbc990f6ed9f9b01a5c7a8bc19e4a3c811b42c39a9407311f3101e4c4ba7f13e360405160405180910390a1565b6000600154905090565b60015481565b6000809054906101000a900473ffffffffffffffffffffffffffffffffffffffff1681565b6000809054906101000a900473ffffffffffffffffffffffffffffffffffffffff1673ffffffffffffffffffffffffffffffffffffffff163373ffffffffffffffffffffffffffffffffffffffff1614151561020f57600080fd5b80600181905550505600a165627a7a72305820bcbc41d1ca4029ab562d86921b2a4df30f77fd8f24eef67657cd30e43fd932600029",
  "source": "pragma solidity ^0.4.18;\n\ncontract Oracle {\n  //Contract Owner\n  address public owner;\n\n  //BTC Marketcap Storage\n  uint public btcMarketCap;\n\n  //Event\n  event CallbackGetBTCCap();\n\n  function Oracle() {\n    owner = msg.sender;\n  }\n\n  function updateBTCCap() public {\n    CallbackGetBTCCap();\n  }\n\n  function setBTCCap(uint cap) public {\n    require(msg.sender == owner);\n    btcMarketCap = cap;\n  }\n\n  function getBTCCap() constant public returns (uint) {\n    return btcMarketCap;\n  }\n}\n",
  "sourcePath": "/Users/christophercoverdale/Desktop/Projects/solidity/oracle-omc/contracts/Oracle.sol",
  "compiler": {
    "name": "solc",
    "version": "0.4.18+commit.9cf6e910.Emscripten.clang"
  },
  "schemaVersion": "1.0.1",
  "updatedAt": "2018-02-27T18:46:20.976Z"
}